{
  "contractName": "D_hub",
  "abi": [
    {
      "inputs": [
        {
          "internalType": "address",
          "name": "",
          "type": "address"
        }
      ],
      "name": "isRegistered",
      "outputs": [
        {
          "internalType": "bool",
          "name": "",
          "type": "bool"
        }
      ],
      "stateMutability": "view",
      "type": "function",
      "constant": true
    },
    {
      "inputs": [
        {
          "internalType": "string",
          "name": "",
          "type": "string"
        }
      ],
      "name": "profileNameMap",
      "outputs": [
        {
          "internalType": "address",
          "name": "",
          "type": "address"
        }
      ],
      "stateMutability": "view",
      "type": "function",
      "constant": true
    },
    {
      "inputs": [
        {
          "internalType": "string",
          "name": "",
          "type": "string"
        },
        {
          "internalType": "uint256",
          "name": "",
          "type": "uint256"
        }
      ],
      "name": "projectCommits",
      "outputs": [
        {
          "internalType": "string",
          "name": "CommitMsg",
          "type": "string"
        },
        {
          "internalType": "string",
          "name": "ipfsCID",
          "type": "string"
        }
      ],
      "stateMutability": "view",
      "type": "function",
      "constant": true
    },
    {
      "inputs": [
        {
          "internalType": "string",
          "name": "",
          "type": "string"
        }
      ],
      "name": "projectNameToAddress",
      "outputs": [
        {
          "internalType": "address",
          "name": "",
          "type": "address"
        }
      ],
      "stateMutability": "view",
      "type": "function",
      "constant": true
    },
    {
      "inputs": [
        {
          "internalType": "address",
          "name": "",
          "type": "address"
        },
        {
          "internalType": "uint256",
          "name": "",
          "type": "uint256"
        }
      ],
      "name": "userProjects",
      "outputs": [
        {
          "internalType": "string",
          "name": "",
          "type": "string"
        }
      ],
      "stateMutability": "view",
      "type": "function",
      "constant": true
    },
    {
      "inputs": [
        {
          "internalType": "string",
          "name": "profileName",
          "type": "string"
        }
      ],
      "name": "registerUser",
      "outputs": [],
      "stateMutability": "nonpayable",
      "type": "function"
    },
    {
      "inputs": [],
      "name": "authenticateUser",
      "outputs": [
        {
          "internalType": "bool",
          "name": "",
          "type": "bool"
        }
      ],
      "stateMutability": "view",
      "type": "function",
      "constant": true
    },
    {
      "inputs": [
        {
          "internalType": "string",
          "name": "project_name",
          "type": "string"
        }
      ],
      "name": "CreateProject",
      "outputs": [],
      "stateMutability": "nonpayable",
      "type": "function"
    },
    {
      "inputs": [
        {
          "internalType": "string",
          "name": "profilename",
          "type": "string"
        }
      ],
      "name": "getAllRepositories",
      "outputs": [
        {
          "internalType": "string[]",
          "name": "",
          "type": "string[]"
        }
      ],
      "stateMutability": "view",
      "type": "function",
      "constant": true
    },
    {
      "inputs": [
        {
          "internalType": "string",
          "name": "project_name",
          "type": "string"
        },
        {
          "internalType": "string",
          "name": "commitMsg",
          "type": "string"
        },
        {
          "internalType": "string",
          "name": "ipfsCID",
          "type": "string"
        }
      ],
      "name": "commit",
      "outputs": [],
      "stateMutability": "nonpayable",
      "type": "function"
    },
    {
      "inputs": [
        {
          "internalType": "string",
          "name": "project_name",
          "type": "string"
        }
      ],
      "name": "getAllCommits",
      "outputs": [
        {
          "components": [
            {
              "internalType": "string",
              "name": "CommitMsg",
              "type": "string"
            },
            {
              "internalType": "string",
              "name": "ipfsCID",
              "type": "string"
            }
          ],
          "internalType": "struct D_hub.Commit[]",
          "name": "",
          "type": "tuple[]"
        }
      ],
      "stateMutability": "view",
      "type": "function",
      "constant": true
    }
  ],
  "bytecode": "0x608060405234801561000f575f80fd5b506119098061001d5f395ff3fe608060405234801561000f575f80fd5b50600436106100a6575f3560e01c8063704f1b941161006f578063704f1b941461018857806387cf6da9146101a45780639cf89662146101d4578063c1c57ced14610205578063c3c5a54714610221578063fadd406614610251576100a6565b80625ce66f146100aa5780630132e822146100c857806301a33423146100f85780632fa9c007146101285780633b6c4fd914610158575b5f80fd5b6100b261026d565b6040516100bf9190610cb5565b60405180910390f35b6100e260048036038101906100dd9190610e1b565b6102bc565b6040516100ef9190610fd8565b60405180910390f35b610112600480360381019061010d9190610e1b565b610455565b60405161011f9190611037565b60405180910390f35b610142600480360381019061013d91906110ad565b61049d565b60405161014f9190611133565b60405180910390f35b610172600480360381019061016d9190610e1b565b61054e565b60405161017f919061120e565b60405180910390f35b6101a2600480360381019061019d9190610e1b565b61070f565b005b6101be60048036038101906101b99190610e1b565b61088e565b6040516101cb9190611037565b60405180910390f35b6101ee60048036038101906101e9919061122e565b6108d6565b6040516101fc929190611288565b60405180910390f35b61021f600480360381019061021a91906112bd565b610a34565b005b61023b60048036038101906102369190611361565b610b70565b6040516102489190610cb5565b60405180910390f35b61026b60048036038101906102669190610e1b565b610b8c565b005b5f805f3373ffffffffffffffffffffffffffffffffffffffff1673ffffffffffffffffffffffffffffffffffffffff1681526020019081526020015f205f9054906101000a900460ff16905090565b60606004826040516102ce91906113c6565b9081526020016040518091039020805480602002602001604051908101604052809291908181526020015f905b8282101561044a578382905f5260205f2090600202016040518060400160405290815f8201805461032b90611409565b80601f016020809104026020016040519081016040528092919081815260200182805461035790611409565b80156103a25780601f10610379576101008083540402835291602001916103a2565b820191905f5260205f20905b81548152906001019060200180831161038557829003601f168201915b505050505081526020016001820180546103bb90611409565b80601f01602080910402602001604051908101604052809291908181526020018280546103e790611409565b80156104325780601f1061040957610100808354040283529160200191610432565b820191905f5260205f20905b81548152906001019060200180831161041557829003601f168201915b505050505081525050815260200190600101906102fb565b505050509050919050565b6001818051602081018201805184825260208301602085012081835280955050505050505f915054906101000a900473ffffffffffffffffffffffffffffffffffffffff1681565b6003602052815f5260405f2081815481106104b6575f80fd5b905f5260205f20015f915091505080546104cf90611409565b80601f01602080910402602001604051908101604052809291908181526020018280546104fb90611409565b80156105465780601f1061051d57610100808354040283529160200191610546565b820191905f5260205f20905b81548152906001019060200180831161052957829003601f168201915b505050505081565b60605f60018360405161056191906113c6565b90815260200160405180910390205f9054906101000a900473ffffffffffffffffffffffffffffffffffffffff1690505f73ffffffffffffffffffffffffffffffffffffffff168173ffffffffffffffffffffffffffffffffffffffff16036105ff576040517f08c379a00000000000000000000000000000000000000000000000000000000081526004016105f690611483565b60405180910390fd5b60035f8273ffffffffffffffffffffffffffffffffffffffff1673ffffffffffffffffffffffffffffffffffffffff1681526020019081526020015f20805480602002602001604051908101604052809291908181526020015f905b82821015610703578382905f5260205f2001805461067890611409565b80601f01602080910402602001604051908101604052809291908181526020018280546106a490611409565b80156106ef5780601f106106c6576101008083540402835291602001916106ef565b820191905f5260205f20905b8154815290600101906020018083116106d257829003601f168201915b50505050508152602001906001019061065b565b50505050915050919050565b5f803373ffffffffffffffffffffffffffffffffffffffff1673ffffffffffffffffffffffffffffffffffffffff1681526020019081526020015f205f9054906101000a900460ff1615610798576040517f08c379a000000000000000000000000000000000000000000000000000000000815260040161078f906114eb565b60405180910390fd5b5f8151116107db576040517f08c379a00000000000000000000000000000000000000000000000000000000081526004016107d290611553565b60405180910390fd5b60015f803373ffffffffffffffffffffffffffffffffffffffff1673ffffffffffffffffffffffffffffffffffffffff1681526020019081526020015f205f6101000a81548160ff0219169083151502179055503360018260405161084091906113c6565b90815260200160405180910390205f6101000a81548173ffffffffffffffffffffffffffffffffffffffff021916908373ffffffffffffffffffffffffffffffffffffffff16021790555050565b6002818051602081018201805184825260208301602085012081835280955050505050505f915054906101000a900473ffffffffffffffffffffffffffffffffffffffff1681565b6004828051602081018201805184825260208301602085012081835280955050505050508181548110610907575f80fd5b905f5260205f2090600202015f9150915050805f01805461092790611409565b80601f016020809104026020016040519081016040528092919081815260200182805461095390611409565b801561099e5780601f106109755761010080835404028352916020019161099e565b820191905f5260205f20905b81548152906001019060200180831161098157829003601f168201915b5050505050908060010180546109b390611409565b80601f01602080910402602001604051908101604052809291908181526020018280546109df90611409565b8015610a2a5780601f10610a0157610100808354040283529160200191610a2a565b820191905f5260205f20905b815481529060010190602001808311610a0d57829003601f168201915b5050505050905082565b825f600282604051610a4691906113c6565b90815260200160405180910390205f9054906101000a900473ffffffffffffffffffffffffffffffffffffffff1690503373ffffffffffffffffffffffffffffffffffffffff168173ffffffffffffffffffffffffffffffffffffffff1614610ae4576040517f08c379a0000000000000000000000000000000000000000000000000000000008152600401610adb906115e1565b60405180910390fd5b600485604051610af491906113c6565b9081526020016040518091039020604051806040016040528086815260200185815250908060018154018082558091505060019003905f5260205f2090600202015f909190919091505f820151815f019081610b50919061179c565b506020820151816001019081610b66919061179c565b5050505050505050565b5f602052805f5260405f205f915054906101000a900460ff1681565b5f815111610bcf576040517f08c379a0000000000000000000000000000000000000000000000000000000008152600401610bc6906118b5565b60405180910390fd5b60035f3373ffffffffffffffffffffffffffffffffffffffff1673ffffffffffffffffffffffffffffffffffffffff1681526020019081526020015f2081908060018154018082558091505060019003905f5260205f20015f909190919091509081610c3b919061179c565b5033600282604051610c4d91906113c6565b90815260200160405180910390205f6101000a81548173ffffffffffffffffffffffffffffffffffffffff021916908373ffffffffffffffffffffffffffffffffffffffff16021790555050565b5f8115159050919050565b610caf81610c9b565b82525050565b5f602082019050610cc85f830184610ca6565b92915050565b5f604051905090565b5f80fd5b5f80fd5b5f80fd5b5f80fd5b5f601f19601f8301169050919050565b7f4e487b71000000000000000000000000000000000000000000000000000000005f52604160045260245ffd5b610d2d82610ce7565b810181811067ffffffffffffffff82111715610d4c57610d4b610cf7565b5b80604052505050565b5f610d5e610cce565b9050610d6a8282610d24565b919050565b5f67ffffffffffffffff821115610d8957610d88610cf7565b5b610d9282610ce7565b9050602081019050919050565b828183375f83830152505050565b5f610dbf610dba84610d6f565b610d55565b905082815260208101848484011115610ddb57610dda610ce3565b5b610de6848285610d9f565b509392505050565b5f82601f830112610e0257610e01610cdf565b5b8135610e12848260208601610dad565b91505092915050565b5f60208284031215610e3057610e2f610cd7565b5b5f82013567ffffffffffffffff811115610e4d57610e4c610cdb565b5b610e5984828501610dee565b91505092915050565b5f81519050919050565b5f82825260208201905092915050565b5f819050602082019050919050565b5f81519050919050565b5f82825260208201905092915050565b5f5b83811015610ec2578082015181840152602081019050610ea7565b5f8484015250505050565b5f610ed782610e8b565b610ee18185610e95565b9350610ef1818560208601610ea5565b610efa81610ce7565b840191505092915050565b5f604083015f8301518482035f860152610f1f8282610ecd565b91505060208301518482036020860152610f398282610ecd565b9150508091505092915050565b5f610f518383610f05565b905092915050565b5f602082019050919050565b5f610f6f82610e62565b610f798185610e6c565b935083602082028501610f8b85610e7c565b805f5b85811015610fc65784840389528151610fa78582610f46565b9450610fb283610f59565b925060208a01995050600181019050610f8e565b50829750879550505050505092915050565b5f6020820190508181035f830152610ff08184610f65565b905092915050565b5f73ffffffffffffffffffffffffffffffffffffffff82169050919050565b5f61102182610ff8565b9050919050565b61103181611017565b82525050565b5f60208201905061104a5f830184611028565b92915050565b61105981611017565b8114611063575f80fd5b50565b5f8135905061107481611050565b92915050565b5f819050919050565b61108c8161107a565b8114611096575f80fd5b50565b5f813590506110a781611083565b92915050565b5f80604083850312156110c3576110c2610cd7565b5b5f6110d085828601611066565b92505060206110e185828601611099565b9150509250929050565b5f82825260208201905092915050565b5f61110582610e8b565b61110f81856110eb565b935061111f818560208601610ea5565b61112881610ce7565b840191505092915050565b5f6020820190508181035f83015261114b81846110fb565b905092915050565b5f81519050919050565b5f82825260208201905092915050565b5f819050602082019050919050565b5f6111878383610ecd565b905092915050565b5f602082019050919050565b5f6111a582611153565b6111af818561115d565b9350836020820285016111c18561116d565b805f5b858110156111fc57848403895281516111dd858261117c565b94506111e88361118f565b925060208a019950506001810190506111c4565b50829750879550505050505092915050565b5f6020820190508181035f830152611226818461119b565b905092915050565b5f806040838503121561124457611243610cd7565b5b5f83013567ffffffffffffffff81111561126157611260610cdb565b5b61126d85828601610dee565b925050602061127e85828601611099565b9150509250929050565b5f6040820190508181035f8301526112a081856110fb565b905081810360208301526112b481846110fb565b90509392505050565b5f805f606084860312156112d4576112d3610cd7565b5b5f84013567ffffffffffffffff8111156112f1576112f0610cdb565b5b6112fd86828701610dee565b935050602084013567ffffffffffffffff81111561131e5761131d610cdb565b5b61132a86828701610dee565b925050604084013567ffffffffffffffff81111561134b5761134a610cdb565b5b61135786828701610dee565b9150509250925092565b5f6020828403121561137657611375610cd7565b5b5f61138384828501611066565b91505092915050565b5f81905092915050565b5f6113a082610e8b565b6113aa818561138c565b93506113ba818560208601610ea5565b80840191505092915050565b5f6113d18284611396565b915081905092915050565b7f4e487b71000000000000000000000000000000000000000000000000000000005f52602260045260245ffd5b5f600282049050600182168061142057607f821691505b602082108103611433576114326113dc565b5b50919050565b7f55736572206e6f7420666f756e640000000000000000000000000000000000005f82015250565b5f61146d600e836110eb565b915061147882611439565b602082019050919050565b5f6020820190508181035f83015261149a81611461565b9050919050565b7f5573657220616c726561647920726567697374657265640000000000000000005f82015250565b5f6114d56017836110eb565b91506114e0826114a1565b602082019050919050565b5f6020820190508181035f830152611502816114c9565b9050919050565b7f50726f66696c65206e616d65206d757374206e6f7420626520656d70747900005f82015250565b5f61153d601e836110eb565b915061154882611509565b602082019050919050565b5f6020820190508181035f83015261156a81611531565b9050919050565b7f4f6e6c79207468652070726f6a656374206f776e65722063616e20706572666f5f8201527f726d207468697320616374696f6e000000000000000000000000000000000000602082015250565b5f6115cb602e836110eb565b91506115d682611571565b604082019050919050565b5f6020820190508181035f8301526115f8816115bf565b9050919050565b5f819050815f5260205f209050919050565b5f6020601f8301049050919050565b5f82821b905092915050565b5f6008830261165b7fffffffffffffffffffffffffffffffffffffffffffffffffffffffffffffffff82611620565b6116658683611620565b95508019841693508086168417925050509392505050565b5f819050919050565b5f6116a061169b6116968461107a565b61167d565b61107a565b9050919050565b5f819050919050565b6116b983611686565b6116cd6116c5826116a7565b84845461162c565b825550505050565b5f90565b6116e16116d5565b6116ec8184846116b0565b505050565b5b8181101561170f576117045f826116d9565b6001810190506116f2565b5050565b601f82111561175457611725816115ff565b61172e84611611565b8101602085101561173d578190505b61175161174985611611565b8301826116f1565b50505b505050565b5f82821c905092915050565b5f6117745f1984600802611759565b1980831691505092915050565b5f61178c8383611765565b9150826002028217905092915050565b6117a582610e8b565b67ffffffffffffffff8111156117be576117bd610cf7565b5b6117c88254611409565b6117d3828285611713565b5f60209050601f831160018114611804575f84156117f2578287015190505b6117fc8582611781565b865550611863565b601f198416611812866115ff565b5f5b8281101561183957848901518255600182019150602085019450602081019050611814565b868310156118565784890151611852601f891682611765565b8355505b6001600288020188555050505b505050505050565b7f50726f6a656374206e616d65206d757374206e6f7420626520656d70747900005f82015250565b5f61189f601e836110eb565b91506118aa8261186b565b602082019050919050565b5f6020820190508181035f8301526118cc81611893565b905091905056fea2646970667358221220992924a8fb13266af7fbe0b02789f2d639e8cf2e538f9c152fb0630c6e8b9fdc64736f6c63430008150033",
  "immutableReferences": {},
  "source": "// SPDX-License-Identifier: MIT\n\npragma solidity 0.8.21;\n\ncontract D_hub {\n    mapping(address => bool) public isRegistered;\n    mapping(string => address) public profileNameMap;\n    mapping(string => address) public projectNameToAddress;\n\n    struct Commit {\n        string CommitMsg;\n        string ipfsCID;\n    }\n\n    mapping(address => string[]) public userProjects;\n    mapping(string => Commit[]) public projectCommits;\n\n    function registerUser(string memory profileName) public {\n        require(!isRegistered[msg.sender], \"User already registered\");\n        require(\n            bytes(profileName).length > 0,\n            \"Profile name must not be empty\"\n        );\n        isRegistered[msg.sender] = true;\n\n        profileNameMap[profileName] = msg.sender;\n    }\n\n    function authenticateUser() public view returns (bool) {\n        return isRegistered[msg.sender];\n    }\n\n    function CreateProject(string memory project_name) public  {\n        require(\n            bytes(project_name).length > 0,\n            \"Project name must not be empty\"\n        );\n        userProjects[msg.sender].push(project_name);\n        projectNameToAddress[project_name] = msg.sender;\n    }\n\n    function getAllRepositories(string memory profilename)\n        public\n        view\n        returns (string[] memory)\n    {\n        address userAddress = profileNameMap[profilename];\n        require(userAddress != address(0), \"User not found\");\n        // address(0) means not a etherium address,\n        return userProjects[userAddress];\n    }\n\n    function commit(\n        string memory project_name,\n        string memory commitMsg,\n        string memory ipfsCID\n    ) public projectOwner(project_name) {\n        projectCommits[project_name].push(Commit(commitMsg, ipfsCID));\n    }\n\n    function getAllCommits(string memory project_name)\n        public\n        view\n        returns (Commit[] memory)\n    {\n        return projectCommits[project_name];\n    }\n\n    modifier projectOwner(string memory project_name) {\n        address userAddress = projectNameToAddress[project_name];\n        \n        require(\n            userAddress == msg.sender,\n            \"Only the project owner can perform this action\"\n        );\n        _;\n        \n    }\n}",
  "sourcePath": "/home/swastik/D-Hub-TDoC/contracts/MyContract.sol",
  "compiler": {
    "name": "solc",
    "version": "0.8.21+commit.d9974bed.Emscripten.clang"
  },
  "schemaVersion": "3.4.16",
  "updatedAt": "2023-12-07T13:13:51.916Z",
  "networkType": "ethereum",
  "devdoc": {
    "kind": "dev",
    "methods": {},
    "version": 1
  },
  "userdoc": {
    "kind": "user",
    "methods": {},
    "version": 1
  }
}